:020000040002F8
:10600000E0820020DD630200E5630200E763020036
:10601000E9630200EB630200ED6302000000000090
:10602000000000000000000000000000EF6302001C
:10603000F163020000000000F3630200F563020058
:1060400041670200F7630200016A0200F763020081
:10605000F7630200F763020029650200F76302009C
:10606000F7630200F7630200F7630200F7630200C0
:10607000F7630200F7630200F7630200F7630200B0
:10608000F763020099670200F7630200F7630200FA
:106090001D680200F763020021680200F763020036
:1060A000F7630200F7630200F7630200F763020080
:1060B000F7630200F7630200000000000000000028
:1060C000F7630200F7630200F7630200F763020060
:1060D000F7630200F7630200F7630200F763020050
:1060E000F7630200F7630200F7630200000000009C
:1060F00000000000F763020000000000F7630200E8
:10610000000000000000000000000000000000008F
:10611000000000000000000000000000000000007F
:10612000000000000000000000000000000000006F
:10613000000000000000000000000000000000005F
:10614000000000000000000000000000000000004F
:10615000000000000000000000000000000000003F
:10616000000000000000000000000000000000002F
:10617000000000000000000000000000000000001F
:10618000000000000000000000000000000000000F
:1061900000000000000000000000000000000000FF
:1061A00000000000000000000000000000000000EF
:1061B00000000000000000000000000000000000DF
:1061C00000000000000000000000000000000000CF
:1061D00000000000000000000000000000000000BF
:1061E00000000000000000000000000000000000AF
:1061F000000000000000000000000000000000009F
:10620000DFF80CD000F052F900480047A5880200E2
:10621000E082002000B583B002900091019244F228
:10622000010071466A4600F037FD03B000BD000072
:1062300030B450E8012F93B2C48923448489A34227
:1062400028BF1B1B0489A34202BFBFF32F8F00206E
:1062500007E0C3EA020340E80134002CE9D14FF023
:1062600001000A6030BC704750E8012FC2EA0242C8
:1062700040E801210029F7D1704730B450E8022FDF
:106280001FFAA2F3C488A34202BFBFF32F8F0020DE
:106290000DE0C48923448489A34228BF1B1BC2EAA2
:1062A000034340E80234002CE8D14FF001000A60BB
:1062B00030BC704750E8022FC2EA224240E8022177
:1062C0000029F7D17047034653E8022FD988B2EB73
:1062D000324F4FF0000017BF92B241EA014142EA4B
:1062E000014104E05A68B2EB324F08BF012043E895
:1062F0000212002AE8D1704730B4044654E8000F77
:106300000D4644E80053002BF8D1156030BC7047AF
:1063100030B4044654E8000F40EA010544E8005355
:10632000002BF7D1156030BC704730B4044654E8F8
:10633000000F00EA010544E80053002BF7D1156077
:1063400030BC704730B4044654E8000F80EA0105C1
:1063500044E80053002BF7D1156030BC704730B4CF
:10636000044654E8000F00EB010544E80053002BFD
:10637000F7D1156030BC704730B4044654E8000FC4
:10638000A0EB010544E80053002BF7D1156030BCA9
:10639000704770B404464FF0000054E8006F0D6879
:1063A000AE4207BF44E80023012044E800630E60CA
:1063B000002B1CBF0020F0E770BC704730B40446CF
:1063C00054E8000F88422CBF451A054644E80053A4
:1063D000002BF5D1156030BC70470000064880479F
:1063E00006480047FEE7FEE7FEE7FEE7FEE7FEE7BA
:1063F000FEE7FEE7FEE7FEE7256802000162020015
:10640000202A04DB203A00FA02F100207047914074
:10641000C2F1200320FA03F31943904070470000B3
:1064200000487047B0C1020040EA01039B0703D057
:1064300009E008C9121F08C0042AFAD203E011F8C3
:10644000013B00F8013B521EF9D27047D2B201E085
:1064500000F8012B491EFBD270470022F6E710B569
:1064600013460A4604461946FFF7F0FF204610BDC2
:10647000421C10F8011B0029FBD1801A704730B56F
:1064800004460020034600E05B1C934203D2E05C1C
:10649000CD5C401BF8D030BD034611F8012B00F84D
:1064A000012B002AF9D1184670470000064C074D11
:1064B00006E0E06840F0010394E8070098471034D4
:1064C000AC42F6D3FFF7A0FE20C9020040C902008B
:1064D00070B58C1810F8015B15F0070301D110F8A6
:1064E000013B2A1106D110F8012B03E010F8016BD3
:1064F00001F8016B5B1EF9D12B0705D40023521E56
:106500000DD401F8013BFAE710F8013BCB1A921CBD
:1065100003E013F8015B01F8015B521EF9D5A142BB
:10652000D8D3002070BD00002DE9F04F00268DB0BB
:10653000DFF8A081B14604964FF4807501243746F8
:106540000596284602F05AFF38B1D8F804032042D5
:1065500003D0284602F048FF26432D1D64007F1C0F
:10656000ADB2082FEDD34FF4BE74204602F046FFC3
:1065700048B1204602F038FF46F0004604AA022146
:10658000002002F01BFF544C16F0FF0F15D001271E
:10659000002537420DD008EB8501D1F81005D1F860
:1065A0001015C0F3052054F82520C1F3014102B1B4
:1065B00090477F006D1C082DEBD3002E7EDA002063
:1065C000CDF82890411E0DF1100B07AACDF82C90A4
:1065D00042F82010401C91460228F9D300252E468F
:1065E000A11911F8607F91F9000027F0C008401C44
:1065F00040D007A9404602F0EDFA40B34FEA971A9F
:10660000404601F09DFB54F820701FB1BAF1030F12
:1066100003D006E0BAF1030F2CD10AA9404602F0DC
:10662000E1FA02A8CDF8088002F06CFE029900EBB6
:106630008100D0F8000704A9C0F301400290404651
:1066400002F0C8FA0028029802D0022802D011E015
:1066500003280FD1BAF1030F08D10298022833D0D2
:106660000221404602F028FE6D1CEDB217B15146E2
:106670004046B847761C042EB2D3002D21D001AA83
:106680000221002002F09AFE00205A460DF104017A
:1066900052F8206051F82030B34217D000200AAEE3
:1066A0004FEA090351F8207042F8207056F8207024
:1066B00043F82070401C0228F4D300E001E0002DD4
:1066C0008CD10DB0BDE8F08F0321CAE7401C022831
:1066D000DED3F6E7006000405058002000F01F02B3
:1066E000012191404009800000F1E020C0F88012B3
:1066F000704700F01F02012191404009800000F125
:10670000E020C0F80011704700F01F020121914005
:106710004009800000F1E020C0F8001270474907EE
:10672000090E002806DA00F00F0000F1E02080F8E2
:10673000141D704700F1E02080F80014704700003D
:1067400070B54FF48076304602F020FB114CB50551
:1067500060B1304602F021FB0120C5F808036079E2
:1067600020B9012060712168002088474FF48276AB
:10677000304602F00BFB00280AD0304602F00DFB39
:106780000220C5F808032168BDE8704001200847D1
:1067900070BD0000504F002007480021C0F8401194
:1067A000C0F84411C0F84811C0F84C11C0F80011ED
:1067B000C0F8041104F0DCBE0010014000F026B95E
:1067C00070B50E46144900EB400001EBC0051446BD
:1067D000E86A183520B101280FD0022805D113E04E
:1067E000284600F047F9A04201D2002411E02246D9
:1067F0003146284600F076F90BE0284600F03AF9D9
:10680000A042F4D20446F2E73146284600F03DF9B2
:106810000446204670BD00005460002004F0F6BD20
:1068200003F06ABB30B54FF0805000228300D0F8EF
:106830003011C3F80C21C3F81021624B1A60624B6F
:106840001B68624C2360604B1B1D1B68241D23606A
:106850005D4B08331B68241D23605B4B0C331B68A6
:10686000241D2360584B10331B68241D2360564B96
:1068700014331B68241D2360534B18331B68534C7F
:1068800020342360504B1C331B68241D23604E4B67
:1068900020331B68241D23604B4B24331B68241DAD
:1068A0002360494B28331B68241D2360464B2C333F
:1068B0001B68241D2360444B30331B68434C403419
:1068C0002360414B34331B68241D23603E4B383317
:1068D0001B68241D23603C4B3C331B68241D236034
:1068E000394B40331B68241D23600123082902D142
:1068F000D0F8344114B1082904D006E0354C3449AD
:10690000216005E0D0F8344114B1082904D006E034
:10691000314CFB21216005E0D0F8344114B1082945
:1069200008D00EE090F858422C48016864F3030147
:10693000016002E0D0F834411CB929494FF40070DD
:10694000086028480168C90702D06FF001010160A2
:106950002548016841F470010160BFF34F8FBFF318
:106960006F8F4FF01021D1F80002002803DBD1F81F
:106970000402002822DA1D4C23601D480368002B06
:10698000FCD01223C1F800320568002DFCD0C1F8FC
:10699000043201680029FCD0226001680029FCD083
:1069A000BFF34F8F10487C380168124A01F4E06150
:1069B00011430160BFF34F8F00BFFDE70F490E4841
:1069C000086030BD380500400404001020C50040B8
:1069D000488103008C56004018F50040E40E00404A
:1069E000409602400004004088ED00E004E50140CC
:1069F00000E401400400FA050090D0033850002064
:106A00000148006800470000584F002010B5124CA4
:106A100002202061606111A0A06104F17800E061B2
:106A20004FF4007020620020A06260620BA1A1649C
:106A3000E06204F51E71E1641021A065C4E9141040
:106A4000E06509A1E01DFFF727FD08A12046FFF73B
:106A500023FD2020A07110BD546000205465726D8C
:106A6000696E616C00000000525454005345474762
:106A7000455200000269C1688A4203D88068401A02
:106A8000104400E0501A401E70472DE9F047C468DA
:106A90001746894606464FF000083069A04201D9E2
:106AA000051B02E0B168201A0D1AB0686D1E001BAC
:106AB000A84200D80546BD4200D33D4670682A462C
:106AC00020444946FFF7B0FCB0687F1B2C44A84423
:106AD000A944A04200D10024F460002FDDD140463B
:106AE000BDE8F0872DE9F04104468846D4E9020765
:106AF000C51BE168606816460844B54206D94146A0
:106B0000FFF792FCB819E060BDE8F0812A464146E3
:106B1000FFF78AFC761B08EB050132466068FFF739
:106B200083FCE660F0E702E008C8121F08C1002AF3
:106B3000FAD170477047002001E001C1121F002AFE
:106B4000FBD170470121202803DA8140054801402C
:106B500003E0402802DA2038814009B10120704763
:106B600000207047FC06FFBD31B500252C462146AC
:106B7000684601F0A0FF00B16D1C641C142CF6D314
:106B8000284638BD10B501220221002000F0DCFFAC
:106B900008B1072818D107220221012000F0D4FFF4
:106BA00008B1072810D100210A22084600F0CCFFC6
:106BB00008B1072808D10B220121002000F0C4FFF2
:106BC00008B1072800D1002010BD000070B50024D6
:106BD000084D05E0686810F8340003F099FA641C69
:106BE00028788442F6D304484068BDE8704000F03D
:106BF000E7B90000604F0020ACBE020070B5002471
:106C0000064D06E06868012110F8340003F0A4FA8C
:106C1000641C28788442F5D3002070BD604F0020AA
:106C2000F8B515460C460646052A01D20720F8BDE0
:106C300003F08AFB18B903F04DFB0028F7D1124985
:106C400000224E600C708D60C1E90422C1E9062269
:106C50000E4D0DE006EBC4002968009181788DF897
:106C6000011000780A4A694603F0C2FA0028DED112
:106C7000641EE4B2EED2BDE8F84004480021054AA3
:106C8000001D00F01DB90000604F0020ACBE0200E6
:106C900095840200218002002DE9FE4314460F4630
:106CA000804672B602F040FE02F072FC0028FBD172
:106CB0000125274EB8F1010F28D06FF4805118EB51
:106CC000010028D0B0F5405F2CD06FF44051C8428D
:106CD00008D13088238805EB00401EA1626802F0CD
:106CE00072FD06E030883A4605EB004020A102F034
:106CF00063FD25480068C00700D000BE224603B0EF
:106D000039464046BDE8F04300F080B830881FA106
:106D100005EB004003E0308824A105EB004002F0C1
:106D200047FDE6E7A06803F091F90346D4E90001C6
:106D3000CDE900100297308825A105EB0040A2683C
:106D400002F049FD30882CA105EB0040E7E7000088
:106D500070500020415353455254494F4E204641F4
:106D6000494C45442061742025733A257500000084
:106D7000554E4B4E4F574E204641554C5420617452
:106D80002030782530385800F0ED00E0534F46545D
:106D90004445564943453A20415353455254494F7F
:106DA0004E204641494C454400000000534F465494
:106DB0004445564943453A20494E56414C494420A2
:106DC0004D454D4F52592041434345535300000018
:106DD0004552524F52202575205B25735D2061740A
:106DE0002025733A25750D0A50432061743A2030EE
:106DF0007825303878000000456E64206F66206585
:106E000072726F72207265706F72740008B5012320
:106E10008DF800309DF80030144B186059609A606E
:106E20006FF48041401807D001280FD1DA60D8688C
:106E300000889861D86807E01A611869806858610D
:106E400018690068986118694068D86118685868BE
:106E50009868D868186958699869D86972B600BF87
:106E60009DF800000028FBD162B608BD2C59002017
:106E700010B58268C368934203D001F0E9FA00209C
:106E800010BD052010BD29B112B1531E134203D00D
:106E9000092070470E2070470160838000218160C7
:106EA000C1600846704710B58268C3689A1A838823
:106EB0009A4203D801F0D6FA002010BD042010BD7C
:106EC000074B9B7823B12AB120B10068037C1BB12A
:106ED00008207047072070474174426100207047C6
:106EE0004C59002070B504F0ADF8104800240B2177
:106EF000047044700E4D817014206C602C706C70A6
:106F0000FFF7ECFB07211420FFF709FC1420FFF723
:106F1000F0FB0848046007211120FFF700FC05483A
:106F2000001F0068A860002070BD00004C590020C0
:106F3000804F0020081501402DE9FC47DFF87890CC
:106F400099F8023073B368B3052902D20720BDE86F
:106F5000FC87436933B3437C012B25D000270446CB
:106F60000025884616468DF80050684600F0EEF879
:106F700001A804F007FFC8B1012101700F49446066
:106F80000968C0E90218C0E904769DF8040089F890
:106F900001009DF8000000F0FDF81420FFF7B4FB9D
:106FA0002846D4E70820D2E70F46D8E704259DF805
:106FB000000000F0EFF8F3E74C5900200415014001
:106FC0000649897839B130B1416921B10021017494
:106FD000022104F0A9BA0820704700004C59002093
:106FE00070B50B4E01460B48B578FFF741FF0446DC
:106FF0005DB10020B070711C0122C81D01F03EFF80
:1070000018B105A2CE21FFF705F9204670BD00009A
:10701000B84F0020105B00202E2E5C2E2E5C2E2EF2
:107020005C2E2E5C2E2E5C2E2E5C636F6D706F6E50
:10703000656E74735C6C69627261726965735C75AC
:107040006172745C6170705F756172745F666966AD
:107050006F2E6300F0B5244E89B01F460D00044624
:1070600072603FD0A888296882B22048FFF70BFFE2
:10707000002835D1A889A96882B21C481030FFF7D2
:1070800002FF00282CD1202219496846FFF7CCF9CD
:1070900060690690207C00B101208DF814008DF805
:1070A0001C70607C00B10E208DF81500E068029025
:1070B000A068039020680190606800900A480D4A1B
:1070C0006946083001F0A6FE002809D1B07020689A
:1070D000401C05D004490122491CC81D01F0CEFE08
:1070E00009B0F0BD0720FBE7B84F0020105B00207F
:1070F00048C00200B5B9020010B501461048FFF7BC
:10710000D2FE040019D10F480F4A0178515C19B121
:10711000001D03F09BFB02E00C3003F07FFA60B926
:10712000084907480839FFF7A3FE30B9054901228D
:107130000839044801F0B2FE0446204610BD0000A4
:10714000205B0020C04F00203C4F002030B5EFF303
:10715000108172B60D4A9468012324B1037000298E
:1071600000D162B630BD93604FF0E023D3F8805178
:10717000074C25401560C3F88041D3F88441546022
:107180005A17C3F8842100220270E8E7585A0020F9
:10719000FC06FFBD0B498A68002A11D000280FD1D8
:1071A000EFF3108072B60B684FF0E022C2F80031A6
:1071B0004B68C2F8043100228A60002800D162B610
:1071C00070470000585A002070B5054608680C4604
:1071D000411C04D002F0CBF8206802F059F8606836
:1071E000411C02D0002102F041F82968A069C1F8D1
:1071F0002405607D227D29681043C1F86C05D4E91F
:1072000000122868C0F81425C0F80C15207D01284C
:1072100014D1A068411C02D0002102F027F8E068D8
:10722000411C04D002F0A3F8E06802F031F8D4E980
:1072300002122868C0F80825C0F8101570BD70B596
:10724000054608680C46411C04D002F09AF82068F4
:1072500002F028F86068411C02D0002102F00FF80B
:107260002968A069C1F82405607D217D2A6808434A
:10727000C2F86C05D4E900122868C0F80C15C0F8F3
:107280001425207D012814D1A068411C02D00021C2
:1072900001F0F5FFE068411C04D002F072F8E068EC
:1072A00002F000F8D4E902122868C0F80825C0F8F6
:1072B000101570BD78210148FFF7CFB80C5400209D
:1072C000F8B506464FF000001500ADF8000015D0E7
:1072D00009236A46304600F015F80446BDF8000060
:1072E000064458B154B12846FFF7C2F8A04205D170
:1072F000224631462846FFF7C2F808B10020F8BD03
:107300000120F8BD70B588B182B10024158803E072
:10731000065D641C3444A4B2A54203D806197678ED
:107320009E4201D08C42F3D38C4201D3002070BD29
:10733000A11C1180005D401E80B270BD054808B5DB
:10734000C16800918168684601F0D6FB0098FFF79C
:107350000BFC08BD0C540020FFF7ACBF70B540B16A
:107360000C4D297839B1044603F050FE28B10020B5
:1073700070BD0E2070BD082070BDE868062807D2D9
:107380000549226801EB8001401C0A60E860EEE7D5
:10739000042070BD244F00208454002040B10549D2
:1073A00000220123CA600B70C1E901021046704738
:1073B0000E207047244F002070B504002DD0002906
:1073C0002BD020480078002827D020880D4611288F
:1073D00015D0302804D0322807D033281ED109E038
:1073E000211D284603F0B6FC18E0211D284603F0B5
:1073F0000DFB13E0211D284603F0E2FB0EE0A08800
:10740000B5F8CA12884209D1002085F8C70285F86C
:10741000C8024FF6FF70A5F8CA0270BD95F8C80201
:107420000028FAD020883028F7D34F28F5D8A08834
:10743000B5F8CA128842F0D12846BDE8704000F085
:10744000A1BE0000244F002048B1084A137843B180
:10745000D26832B190F8C7222AB1112070470E20AD
:1074600070470820704700F08DBE0000244F0020B8
:10747000F8B50188041D0026634D1F297DD012DC5C
:1074800062484FF003021029008802EB00401ED032
:1074900011297DD01B2972D01D2970D1201DBDE876
:1074A000F84003F0E1B921296AD03B2969D0562977
:1074B00065D18088132176DF218800286E545ED044
:1074C00053A240F23321BDE8F840FEF7A3BE228864
:1074D00053A102F071F92088042805D34CA240F290
:1074E000B3110020FEF796FE21885A4E002206EBCB
:1074F000011000F0D9F903464348183840690328C1
:1075000002D82288411CA95430B1012806D0022893
:1075100006D0032806D00AE04F4804E04F4802E0B6
:107520004F4800E04F48218806EB011188601800A1
:1075300004D037A24FF4E671FEF76CFE2188324A80
:10754000B32048430C3202EB8000FFF77DFF112887
:1075500005D020B12EA24FF4E971FEF75BFE0120A9
:1075600000F0E0FAFFF7EAFE04284FF000000BD02D
:1075700000F0D8FABDE8F84004E025E008E037E084
:107580002BE036E003F0BCBDBDE8F84000F0C2BA25
:107590002379228834A102F016F920882E54FFF7AF
:1075A000CDFE50B9FFF712FB20B119A24FF4F971CB
:1075B000FEF730FE012000F0ADFA03F0A1FDBDE8BA
:1075C000F840002000F0AEBA2088211D75DF0028A9
:1075D0000ED00FA240F2132175E70096808869460D
:1075E0008FDF002804D00AA240F21F21FEF712FE0E
:1075F000F8BD8088132176DF218800286E54F7D0EB
:1076000003A240F229215EE7804300207050002051
:107610002E2E5C2E2E5C2E2E5C6D61696E2E63000C
:10762000436F6E6E656374696F6E203078257820C5
:1076300065737461626C69736865642C207374612E
:107640007274696E6720444220646973636F766563
:1076500072792E00A053002035820200A58202001C
:1076600015830200898302004C42532063656E74C7
:1076700072616C206C696E6B2030782578206469AB
:1076800073636F6E6E6563746564202872656173E1
:107690006F6E3A20307825782900000010B51A4C1A
:1076A0000188606810290ED011292BD1401E60601E
:1076B00028D1FFF767FA002824D02168002921D0BB
:1076C000BDE810400847D0B900210122084600F06B
:1076D0003BFA08B107280FD107220221012000F050
:1076E00033FA08B1072807D104220221002000F054
:1076F0002BFA20B1072802D0216801B188476068C1
:10770000401C606010BD00001C4F00202DE9F04FB0
:107710000746858802883E48012197B08346102A93
:1077200009D0112A4BD01A2A6ED1387AB1EB101F2A
:1077300047D2012246E0364C083CA068C0430B907B
:1077400061680BA801F0D8F90B990CA800F09AFB1E
:107750002C220CA96846FEF767FE0026E946A046E3
:1077600010E000BF09EB46005FF00004B0F804A091
:1077700008EB84005146001D01F092F9641C1D2C99
:10778000F6D3761C0098B042ECD8142D07D317B06E
:10779000E321BDE8F04F1FA20420FEF73BBD2946C0
:1077A000584601F093F9294608F1040001F08EF9DA
:1077B000F87B012828D016482946001D15E02946E7
:1077C0001AE000220221B1EB101F01D2012600E0D5
:1077D00000260F49083901F11000041D294682B125
:1077E00001F074F936B12946204617B0BDE8F04FD4
:1077F00001F06CB92946204617B0BDE8F04F01F002
:107800004FB901F04DF9F5E717B0BDE8F08F000072
:10781000145400202E2E5C2E2E5C2E2E5C2E2E5C00
:107820002E2E5C2E2E5C636F6D706F6E656E7473A2
:107830005C626C655C636F6D6D6F6E5C626C655FE6
:10784000636F6E6E5F73746174652E630000000079
:1078500070B518B30288A2F57F41FF391CD0104CD7
:107860004388104D206800EB8001401C00F00700A9
:10787000206005EB810102204B81C881081D086151
:1078800000248C810120087208714C710A80887074
:1078900003F0A8FE204670BD082070BD0E2070BD0C
:1078A000344F00209C57002040B1018022B1116864
:1078B000C0F802109188C180002070470E207047E8
:1078C00030B5134D040085B02DCD8DE82D001DD0B1
:1078D000E1B10868D0B100206080A080E0804FF660
:1078E000FF7020800868A06004F10C01684662DF28
:1078F000002809D1207B8DF8120041F22350ADF809
:10790000100004A8FFF72AFD05B030BD0E20FBE7EC
:1079100080BE020000B585B0002924D0002822D006
:107920000288112A2AD0382A1FD0392A1BD10A46A8
:1079300009888388994216D141899388994212D146
:1079400002218DF800101188ADF80210017C8DF82D
:10795000041000F110010391C089ADF81000936884
:1079600069461046984705B000BD09888088814265
:10797000F9D105B05DF804EB03F034BE0A888088C5
:107980008242F0D14FF6FF70088000204880888046
:10799000C880E8E770B518B30288A2F57F43FF3BC3
:1079A0001CD0104C104D236803EB83025B1C03F0CA
:1079B0000703236005EB8202C38853810123D3812F
:1079C000141D146100249481022414721171008822
:1079D0001080937003F006FE002070BD082070BD7B
:1079E0000E2070BD344F00209C57002010B50A783F
:1079F00086B0002A3FD18A88A2F5A853233B3AD10A
:107A00008A79037B9A4236D101228DF800204A8878
:107A1000ADF80220002217E002EBC20301EB4303A2
:107A200033F80E4F04F6DC24B4F5005405D0012CD5
:107A300009D11B89ADF8083005E01C89ADF8064076
:107A40005B89ADF80430521C0B7A9342E4D801886C
:107A5000A1F57F42FF3A0BD0C18849B9818839B975
:107A6000418829B90199C0F80210BDF80810C180F9
:107A700082686946904706B010BD000008B502F064
:107A800001FA20B10D4A40F25621FEF7C3FB002057
:107A900000906946012002F061F820B1074A4FF4D6
:107AA0001771FEF7B7FB684602F0DCF8002804D037
:107AB000024A4FF41871FEF7ADFB08BD9C89020025
:107AC0002DE9FC410646C0074FF000050ED0104FCF
:107AD00000240122385D009500231146019501F034
:107AE00061FB641C042CF4D300F024F8B0070DD51E
:107AF000074E0024361D0022305D032300951146F9
:107B0000019501F04FFB641C042CF4D3BDE8FC810B
:107B1000E4BD02000249085C012101F03CBC000008
:107B2000E4BD02000249085C002101F034BC000001
:107B3000E4BD020010B500242046FFF7EBFF641CF3
:107B4000042CF9D310BD000070B50023042810D216
:107B50000D4D00EB4004012A02D101290CD0002276
:107B6000094E00EB4000304461B1012906D00229E2
:107B700006D00723184670BD0E30C2B22A55F9E769
:107B80004270F7E78270F5E7FF5300202DE9F843D4
:107B90000546861C00208DF8000090460F464FF0E9
:107BA00001096846FFF7D2FA1B4C20683860D4E917
:107BB0000001401AA16804F21C47081A0EE00121D6
:107BC000384600F093FF00F01FFE0146384600F0F3
:107BD0008DFFD4E90001401AA168081A401C8642B2
:107BE000EDD8B8F1000F03D0052065F3891002E04D
:107BF000062065F39F50A2682168114004EB8101C3
:107C0000C8602068304420609DF80000FFF7C2FA89
:107C10004846BDE8F8830000305C002030B482683C
:107C20000468531C8360A154D0E901128A4202D334
:107C300030BC01F050B930BC70470000034803C8A5
:107C4000814201D10120704700207047305C002044
:107C500070B5114D03260C460B2808D00C280FD008
:107C6000BDE870400DA24FF42B71FEF7D3BA084661
:107C700000F034FD2888224606EB00400BA107E007
:107C8000084600F02BFD2888224606EB00400DA197
:107C9000BDE8704001F090BD705000202E2E5C2E8B
:107CA0002E5C2E2E5C6D61696E2E63004C4253205B
:107CB0007772697465204C45442073746174652043
:107CC000256400004C4253207772697465204C454E
:107CD00044322073746174652025640005494FF0B7
:107CE000FF32082841F8202002D3084480F85820A9
:107CF0007047000050580020F0B54FF0FF3512B12A
:107D00000023082601E008230C260C4C05E000BFE8
:107D100054F823707F1C04D05B1CB342F8D3284670
:107D2000F0BD26185DB286F8305044F82310002AC2
:107D3000F5D1E11881F85800F1E700005058002013
:107D40000249084490F93000704700005058002064
:107D500008B5024690F8C6020B4600EB8001C1EB65
:107D6000801002EB400092F8C52242B1521ED2B2FE
:107D700002EBC20100EB4102518A491C00E0C188BC
:107D8000ADF800100089ADF80200694618469DDF85
:107D900008BD000070B5084C050009D010342168FA
:107DA000002907D008682060496828468847F6E718
:107DB0000834F4E770BD00003C580020054A01215A
:107DC00020B1012805D19170FFF7E4BF5170002068
:107DD000FAE770473C5800202DE9F05F26484168DB
:107DE000F1B3DFF898B00E688146DBF80040876891
:107DF0008078E11B21F07F45ED1CB0B9DFF8808071
:107E00004FF48030C8F84403C8F804031120FEF78B
:107E100065FC1120FEF76DFC4FF0010AC8F800A0C8
:107E20002F2002F06DF989F802A0B54200D2354644
:107E3000124BE8193C3320F07F401860DBF800104B
:107E40005A46091B21F07F41001B20F07F40C91CCE
:107E500081420FD9106818602F2002F051F900E01C
:107E600004E0BDE8F05F1120FEF74EBCBDE8F05F16
:107E700003F0E8B8BDE8F09F804F002004150140F2
:107E80000010014073B58CB00646002000900D989C
:107E900080B100246D4621460DA800F00CFE30B1E3
:107EA000009805EB400084800098401C0090641C02
:107EB000142CF0D32C2269463046FEF7B5FA0EB0EA
:107EC00070BD0000F0B587B0074600200490ADF803
:107ED00010100590ADF812100190029001AA04A9AB
:107EE000384690DF060022D002F0B0F8114C03466D
:107EF000012520883A4605EB00400F4901F063FC5C
:107F0000BDF8042012B9BDF8060038B12088BDF8CC
:107F1000063005EB004009A101F055FCBDF8082032
:107F20002AB12088154905EB004001F045FC07B057
:107F30003046F0BD40500020E8C102005468652082
:107F40007265717565737465642054582F5258209A
:107F50007061636B6574206C656E6774682069730B
:107F600020746F6F206C6F6E672062792025752FEB
:107F70002575206F63746574732E000034C202008F
:107F80004188034A02EB011201461046FFF72EBD5D
:107F9000A05300202DE9F843054690F8C6020F468D
:107FA00000EB8001C1EB801005EB400695F8C5425F
:107FB000914604EBC40006EB40013279601C0A31A3
:107FC000904226D16B460022284600F05FFB18B392
:107FD00010E0401EA04201D1002004E004EBC400E8
:107FE00006EB40001C30804602466B46284600F0F7
:107FF0004DFB30B100203870694648469EDFBDE831
:10800000F88395F8C5024146401C641C85F8C502FA
:10801000E4B23079A042DCD8012038700020EEE7CD
:108020002DE9F0470025DFF88C803CE060680021F6
:1080300000EBC506012032789146FEF7E1F9D4E95C
:10804000062300EA020701EA030C57EA0C0728D0CE
:1080500082438B434846C4E9062302F033F9327861
:108060008246914601200021FEF7CAF9D4E9042393
:1080700000EA020401EA03074A4650460021FEF7DF
:10808000BFF944404F403C430BD17078012801D0E8
:10809000012100E00021726881EA0A010AB1484624
:1080A00090476D1CEDB298F8000044468542BDD360
:1080B000BDE8F087604F00202DE9F047894690F831
:1080C000C612904601EB8102C2EB811100EB410721
:1080D000384602F09BFF06002FD0194CA0680628F6
:1080E0002BD2184D762205EBC0103946A0F802803D
:1080F000001DFEF799F90027B9F1000F04D0A06820
:1081000005EBC010077004E0A168022005EBC11167
:108110000870A06805EBC011401CCE67A060E16844
:1081200088420AD1002604E005EBC610C16F8847DB
:10813000761CE0688642F7D3A760BDE8F0870000B0
:10814000244F00209C54002070B50E4690F8C612B3
:10815000154601EB8102C2EB8111A0B000EB41009A
:1081600002F054FF040009D07C2205496846FEF75E
:108170005BF9ADF8025068460196A04720B070BD8B
:10818000ECBD020070B50E4604464FF43371FEF7A5
:1081900064F911480025A4F8CA62856084F8C952C0
:1081A0000E4884F8C65284F8C55200682060224602
:1081B000012130469BDF0121112806D0002809D17A
:1081C00084F8C71284F8C85203E084F8C71284F810
:1081D000C812002070BD0000244F002084540020ED
:1081E00010B50021024800F092FC80F3100010BD91
:1081F0004C6000200E4910B50A784C780023A2424A
:1082000012D0521CD2B20A70022A00D10B70084A56
:108210000B780C3252F8232002608868104420F05A
:108220007F408860012010BD0360002010BD000069
:10823000804F002070B5044608780D46012809D00B
:10824000022826D14120FEF757FF3020FEF754FFC9
:10825000002416E0FEF7D2FC18B10EA2CF21FDF7E4
:10826000D9FF2046FFF7F4FA002812D0BDE870408D
:1082700008A2D321FDF7CEBFE868005DFEF73CFF02
:10828000641C288AA042F7DCBDE870400A20FEF793
:1082900033BF70BD2E2E5C2E2E5C2E2E5C6D616960
:1082A0006E2E630070B5044608780D46012809D08B
:1082B000022826D14120FEF71FFF3120FEF71CFFC8
:1082C000002416E0FEF79AFC18B10EA2EE21FDF78D
:1082D000A1FF2046FFF7BCFA002812D0BDE870408D
:1082E00008A2F221FDF796BFE868005DFEF704FFE3
:1082F000641C288AA042F7DCBDE870400A20FEF723
:10830000FBBE70BD2E2E5C2E2E5C2E2E5C6D616928
:108310006E2E630070B5044608780D46012809D01A
:10832000022828D14120FEF7E7FE3220FEF7E4FEC6
:10833000002418E0FEF762FC20B10FA240F20B11FE
:10834000FDF768FF2046FFF783FA002813D0BDE849
:10835000704009A240F20F11FDF75CBFE868005DB4
:10836000FEF7CAFE641C288AA042F7DCBDE8704014
:108370000A20FEF7C1BE70BD2E2E5C2E2E5C2E2E66
:108380005C6D61696E2E630070B5044608780D4619
:10839000012809D0022828D14120FEF7ADFE332064
:1083A000FEF7AAFE002418E0FEF728FC20B10FA279
:1083B00040F22911FDF72EFF2046FFF749FA002869
:1083C00013D0BDE8704009A240F22D11FDF722BF85
:1083D000E868005DFEF790FE641C288AA042F7DC86
:1083E000BDE870400A20FEF787BE70BD2E2E5C2EC1
:1083F0002E5C2E2E5C6D61696E2E630030B50446D6
:10840000006887B00D46806800281FD01821684694
:10841000FEF723F80195A0680590207910B1012896
:1084200010D107E001208DF8000020690290E0687B
:10843000039005E002208DF80000E0680003029040
:1084400060690490206881686846884707B030BD3D
:10845000826883881A4003689A5C0A708168491CA4
:1084600081607047C26883881A4003689954C16864
:10847000491CC160704710B50023521C05E0C45C64
:10848000944201D1012010BD5B1C8B42F7DB002020
:1084900010BD00002DE9F041804602460120002178
:1084A000FDF7AEFF1A4F05460E467868FEF788FDC9
:1084B00000280CD1174CD4E9062110462A4001EAC5
:1084C00006031A4305D0A843B143C4E90601BDE839
:1084D000F081404601F0F6FE30B1D4E904012843B2
:1084E0003143C4E9040105E0D4E90410A943B043D1
:1084F000C4E90410D4E9060128433143C4E9060164
:10850000A1687868BDE8F0410022FEF715BD0000C3
:10851000ACBE0200604F00202DE9FC5F0E008346D8
:10852000DDE90C47C6F1000098469246814600D42A
:108530000846012503E000BF90FBFAF06D1C504592
:10854000FADAA84500D9454624B1002E01DB7807A8
:1085500000D5641EB80702D5B8F1000F0AD0F8079D
:1085600008D13CB1A54205D220215846641EFFF730
:1085700055FBF6E7002E02DA4E462D2102E0780781
:1085800003D52B215846FFF749FB07F003000228CB
:108590000BD1B8F1000F08D13CB1A54205D2302172
:1085A0005846641EFFF73AFBF6E7CDE9004743461D
:1085B00052463146584603F08BFBBDE8FC9F000055
:1085C00070B50D46044600684FF4887101F05EFDF9
:1085D0004FF49071206801F059FD4FF492712068BA
:1085E00001F054FD4FF4A271206801F04FFD2068A6
:1085F0001249C0F8041320686907000B40B2090E45
:10860000002806DA00F00F0000F1E02080F8141DC9
:1086100003E000F1E02080F8001420680121000B45
:1086200040B200F01F0291404009800000F1E020BC
:10863000C0F88012C0F8001170BD000010030200E5
:10864000024600201268930702D0530702D47047F5
:10865000500714D502F00300012802D002280CD1E3
:1086600005E0C2F383100B68801C184404E0022369
:10867000086803EB925210440860012070470868B4
:1086800000EB9253C2F38910401CEEE710B5098944
:108690002AB1D088491C814218D1002010BD90F821
:1086A000C62202EB8204C4EB821200EB4202128962
:1086B0009142F2D0491C198090F8C61201EB810258
:1086C000C2EB811100EB4100008902E01980D088E3
:1086D000401E5880012010BD7047000010B50146B3
:1086E0000548FFF757F928B1A0F54051023901D0EC
:1086F000082800D1002010BDA053002017210180C0
:1087000041800021017141711B218171C17170474C
:108710002DE9F047394E002780463D46DFF8E090CE
:10872000D6F804A057E003D00446D0F81C8035E00A
:1087300099F8002002EB4201521CD2B289F80020C5
:1087400009EBC10199F80230091D9A4201D189F85B
:10875000005048680A780446012A12D0022A02D042
:10876000032A3BD108E002F0AFFE00B101272574D7
:1087700034E00574C06900E070680028F9D17060C9
:108780002CE0207C50BB88686060C868A0600869E5
:10879000E0604869A061F07800B165606268B16826
:1087A000184B501A20F07F40984202D2A16808442A
:1087B00006E0881AA16820F07F40814202D9081A99
:1087C000206000E0256065600120A56020742046DF
:1087D000E56102F05BFEB8F10000A4D199F8001049
:1087E00099F801008142A3D117B97168514502D0AF
:1087F0000120BDE8F0870020FBE70000804F00204B
:108800004C590020FFFF7F002DE9FF41002623483F
:1088100000F069F92148001F074600F064F9204C78
:1088200060680090A56800E000986946284004EB65
:1088300080000C30FFF704FF0028F5D101AA009951
:1088400001EA050304EB8303491CDB6842F820308E
:10885000401C00910228F2D3019800F00300012887
:108860000BD0022810D10198032101EB9050009900
:10887000BDF80A6001EB900005E00198BDF80A60C0
:10888000C0F3831008440090384600F029F908B17D
:108890000098606004B03046BDE8F0814860002078
:1088A000305C00208AB04FF40041002000F0F8FF57
:1088B00020B13AA240F2AF31FDF7ACFC00F05AFE15
:1088C000FEF710FB20B135A240F2BA31FDF7A2FC51
:1088D000182236496846FDF7A7FD35480690354908
:1088E0004FF48070CDE9070109900723324A06A9A9
:1088F0006846FEF7AFFB20B128A240F2DB31FDF75E
:1089000089FC0120FFF7DCF840F2666202212B4867
:10891000FEF786F920B121A24FF43071FDF77AFC01
:1089200001F0DCF820B11DA240F29931FDF772FC94
:10893000FFF7A4F80021224800F05EF920B117A249
:1089400040F2C331FDF766FC1E48FEF727FD20B15B
:1089500012A240F28F31FDF75DFC194D1A48002438
:108960002C354FF41276009005EB04106946FEF7A3
:10897000A7FF18B109A23146FDF74CFC641C042C7A
:10898000F2D3FEF7E9FC02F0BBFB00BF00F000FEF3
:108990000028FBD101F0B6F8F8E700002E2E5C2E7F
:1089A0002E5C2E2E5C6D61696E2E6300CCBD0200C4
:1089B000745100207452002069B602000C4F002050
:1089C00074530020817F0200D98602002DE9F04710
:1089D000C7880446181D16468946B0FBF7F1B0FB60
:1089E000F7F207FB12009A193A44D21CB2FBF7F2D5
:1089F000DDF820A001E02468491E0029FBD13D1AC2
:108A00008846B54216D818E0BAF1000F05D02118F3
:108A100009EB08002A46091D04E0204409EB08017F
:108A20002A46001DFDF700FD00202468761BA8449F
:108A3000B74201D9354600E03D46002EE4D1BDE8FD
:108A4000F087000030B5024659B100F055FF002113
:108A5000074C09E004EB810315685B88AB4202D147
:108A60001160002030BD491C8142F3D3052030BD88
:108A70003C50002010B50A8849888A4203D1FDF78E
:108A800019FC012010BD002010BD70B50C46054634
:108A9000FDF7F3FB002802D061882868084470BD08
:108AA00001F01F0301229A40D243490900EB8100E3
:108AB000114600F021B84A0950F8220001F01F02C7
:108AC00001219140084000D00120704701F01F03B0
:108AD00001229A40490900EB8100114600F01CB8C0
:108AE000002100F00FB8012100F016B808B56A4661
:108AF000FDF735FC009808BD08B56A46FDF715FC82
:108B0000009808BD08B56A46FDF70FFC08BD08B51A
:108B10006A46FDF7F1FB08BD08B56A46FDF7F8FBAC
:108B2000009808BD08B56A46FDF726FC009808BD08
:108B300038B5044600258DF800506846FEF706FB60
:108B400021686268086890420ED9401E086001786A
:108B5000A38AE26801FB0325227A2168101AC0B2B9
:108B60000A79824200D208719DF80000FEF712FBDC
:108B7000284638BD38B5054600208DF800000C4663
:108B80006846FEF7E3FAE868A98A201AB0FBF1F11B
:108B90002A681068431C136001709DF80000FEF7FE
:108BA000F9FA38BD10B530B1017A42680368891A04
:108BB000C9B21A6006E00E2010BD03681A68541C82
:108BC0001C601170491EC9B2F7D200680021017102
:108BD000084610BDC20800F007030120895C9840D8
:108BE0000840704710B5C20800F00703885C0124F4
:108BF0009C402043885410BD70B5040010D017204D
:108C0000A162208060801B202071002504EBC5003C
:108C1000801DFFF773FD6D1C042DF7D3002070BD80
:108C20000E2070BD2DE9F04185888EB00C46042DD4
:108C30007ED20188464E4FF00008242940D006DC41
:108C4000102909D011290CD023295FD154E03A29E9
:108C50000DD055295AD12EE00146204601F060FF83
:108C600054E004EBC500801DFFF748FD4EE02946A7
:108C700004EBC107408937F8062F824200D810461E
:108C80007880172800D217207880A06A70B1787990
:108C900060B1D6E90002CDE90002ADF80210788893
:108CA000ADF80400A26A20466946904787F805801F
:108CB00087F804802AE00146204601F0F9FF25E00C
:108CC000011D2C226846FDF7AFFBBDF80000BDF882
:108CD000042004EBC0014A73A26ABAB1D6E90423A6
:108CE000CDE90B23ADF82E00487B8DF83000A26A49
:108CF00020460BA9904709E004EBC503017A187BD5
:108D0000884200D201462846FFF7DCF804EBC50490
:108D1000A07A002818D0E1882846A5DF012580B177
:108D2000112811D001F092F902460A48008800E0AB
:108D30000AE00EB005EB0040BDE8F04106A100F0EE
:108D40003BBD84F80A80E5720EB0BDE8F0810000FA
:108D500068BE02004050002073645F626C655F670C
:108D6000617474635F65786368616E67655F6D7475
:108D7000755F7265717565737428292072657475E5
:108D8000726E65642025732E0000000000F18040A3
:108D90000068002800D00120704708B500F180402D
:108DA000002101600068009008BD000070B50B4C08
:108DB000207808B185250FE00020A0606060206168
:108DC000E060074801F07EF9054601F0A7F808B910
:108DD00001F062F901202070284670BD3C58002047
:108DE000BD7D020038B500258DF800506846FEF7BD
:108DF000ADF9074CE068401EE060E06810B901F092
:108E000071F9A5709DF80000FEF7C4F938BD0000A7
:108E10003C580020F0B505460478154889B0164640
:108E200040F82420124A08690832A2F10C0742F8DF
:108E30002400487F385520226846FDF7F5FA04944F
:108E40002878385C48B10EB10A4A00E00022694631
:108E5000281D01F0FBFB09B0F0BD0EB1064A00E091
:108E60000022694605F10C0001F0A6FAF3E70000C4
:108E7000404F0020ADBB020055BA020030B4037869
:108E8000054CE35C1BB130BC001D01F015BC30BCCF
:108E90000C3001F0FBBA00003C4F002030B40378E6
:108EA000054CE35C1BB130BC001D01F087BC30BC3D
:108EB0000C3001F061BB00003C4F00200FB408B53E
:108EC0000399002904D004AA00926A4600F00FF822
:108ED00001B05DF814FB10B582680446002A05D085
:108EE000D4E90403216898470020A06010BD2DE953
:108EF000FC4791460C00804676D014F8011B39B12E
:108F000025290ED04046FEF789FE20780028F4D1AE
:108F100098F80C00002867D04046BDE8FC47FFF7F2
:108F2000DABF0020012221782B291BD02D2902D065
:108F3000302908D102E040F0010001E040F00200D9
:108F4000641C002AEFD100252A290ED02178A1F136
:108F500030020A2A11D205EB850201EB4205641C9E
:108F6000303DF1E740F00400EAE7D9F800100B1DAE
:108F7000C9F800300968641C0D44217800232E29AB
:108F80000BD114F8011FA1F130020A2A05D203EB1C
:108F9000830201EB4203303BF3E76C290DD06829D3
:108FA0000BD0692921D00BDC252918D0582931D0C4
:108FB00063290ED0642915D117E014F8011FECE7DE
:108FC000702969D0732932D075291BD0782909D12D
:108FD00020E0D9F80000011DC9F8001001784046D2
:108FE000FEF71CFE641C90E76CE0D9F800100A1D27
:108FF000C9F800200968CDE900500A224046FFF771
:109000008BFAEFE7D9F800100A1DC9F800200968AB
:109010000A2206E0D9F800100A1DC9F800200968E4
:109020001022CDE90050404602F052FEDAE7D9F8AE
:10903000001000270A1DC9F800200E68C00705D1DE
:1090400012E04046761C7F1CFEF7E8FD31780029CF
:10905000F7D104E0202140466D1EFEF7DFFDBD4242
:10906000C0D9002DF6D1BDE74EB13046FDF700FA6C
:10907000074604E0202140466D1EFEF7CFFDBD42AD
:1090800006D9002DF6D103E04046761CFEF7C6FD5A
:1090900031780029F8D1A5E7D9F80000011DC9F8F9
:1090A0000010056830214046FEF7B8FD78214046A3
:1090B000FEF7B4FD08200021CDE90001034610228F
:1090C0002946B0E7BDE8FC87044801214174007AD5
:1090D00008B100207047012070470000F05A0020BE
:1090E000012801D0032808D10449002201284A742C
:1090F00000D00020087401F039BF7047F05A0020FA
:1091000070B50246022801D0032A45D1234C207AAB
:10911000002841D0012833D0022831D12048002333
:10912000022A006802D0032A2AD11BE0E3600179F9
:1091300011B1012924D10DE0D0E90565711B4FF46F
:109140008056B14200D33146294481614569A94224
:109150000ED015E00169491C0161426991420FD1AD
:10916000237213E0E168491CE160082908D9E36033
:109170002372022A0AD00D21FFF740F901F0ECFE1C
:10918000607C28B1BDE8704000F0CEBE0021F3E75E
:10919000BDE8704001F0EABE70BD0000F05A00204A
:1091A000A84F00202DE9FF411C46DDE90A7815464D
:1091B0000E46684600F098F846EA450141EA840107
:1091C00041EA072242EA0841009A00EB8200C0F817
:1091D0000017BDE8FF812DE9FF411C46DDE90A7853
:1091E00015460E46684600F08DF846EA450141EA0C
:1091F000840141EA072242EA0841009A00EB82001A
:10920000C0F80017BDE8FF812DE9FF411C46DDE9EC
:109210000A7815460E46684600F082F846EA45018F
:1092200041EA840141EA072242EA0841009A00EB40
:109230008200C0F80017BDE8FF812DE9FF411C4600
:10924000DDE90A7815460E46684600F077F846EAEA
:10925000450141EA840141EA072242EA0841009AB5
:1092600000EB8200C0F80017BDE8FF811CB50022AA
:109270000B46009211460192FFF7C6FF1CBD1CB5BC
:1092800000220B46009211460192FFF7D6FF1CBD4B
:109290001CB5002100910B46012201911146FFF7F8
:1092A000B3FF1CBD1CB5002100910B4601220191AA
:1092B0001146FFF7C2FF1CBD13B50C46684600F00F
:1092C00021F8009900EB8101D1F8002722F4403207
:1092D000C1F80027009900EB8100D0F8001741EA9F
:1092E0000441C0F800171CBD0168202902D24FF0CC
:1092F000A040704701F01F01016001487047000065
:10930000000300500168202902D24FF0A0407047AE
:1093100001F01F0101600148704700000003005088
:109320000168202902D24FF0A040704701F01F01D0
:1093300001600148704700000003005001682029C7
:1093400002D24FF0A040704701F01F0101600148B8
:10935000704700000003005001B56846FFF7D2FFD8
:10936000D0F810050099C84000F0010008BD01B513
:109370006846FFF7D5FF009A01219140C0F8081513
:1093800008BD01B56846FFF7D9FF009A0121914059
:10939000C0F8081508BD38B501240090684631B101
:1093A000FFF7A2FF00998C40C0F8084538BDFFF7D1
:1093B0009BFF00998C40C0F80C4538BD1CB5094C8A
:1093C0000144D4E90034CDE900346C4606E000BF26
:1093D00054F82030D3F81035401C08C28142F7D829
:1093E0001CBD00009CBE0200034908B508440021D2
:1093F00001600068009008BD0060004002494058CC
:10940000012800D0002070470060004030B5124BAA
:1094100001460020D3F81044224609E0157A85421F
:1094200005D1401C0A28F7DB4FF0FF3030BD5268F1
:10943000002AF3D1421CF9D00872D3F810242AB1C3
:1094400052684A60D3F81024516030BD0022C3F83E
:1094500010144A6030BD0000305C00207047FDF7FA
:10946000ADB9704708B5034A00924023024A00F0A4
:1094700005F808BD09B20200305B0020F0B595B0D8
:109480001C4615460F4608461A9E00F005FB18219B
:1094900009A8FCF7E2FF0E96CDE909540023082243
:1094A00003A9384600F00DFB05980690BDF81000A2
:1094B000ADF81C00BDF81200ADF81E0000208DF8BC
:1094C00021000398082600F00300012802D002289A
:1094D00018D032E003983346850AC0F3C2008DF8F5
:1094E000200003980FA9C0F38314A200384600F0AF
:1094F000E8FA09A8009006AB22460FA9284600F01A
:1095000027FA1AE00398840DC0F3C2008DF82000FA
:10951000082C01D2254600E0082533462A460FA92B
:10952000384600F0CEFA2E44641B09AB06AA294641
:109530000FA800F05FF9002CEAD1384600F0B2FA2B
:1095400015B0F0BD0A4A012902EBC00007D002297C
:1095500007D0032907D0042907D000207047022034
:1095600070470420704700797047407970470000C9
:1095700040C9020010B5FFF772FF04210348FFF74E
:1095800045FF02490120487210BD0000D84F00205D
:109590002DE9F04F8DB0FEF751FB18B100200DB052
:1095A000BDE8F08F7A4C4FF0000BC4F818B4BFF34D
:1095B0004F8F60680290A568D846284004EB800071
:1095C00008E021680298814201D86160E6E72840FE
:1095D00004EB80000C3002A9FFF732F80028F0D12C
:1095E00005AA029901EA050304EB8303491CDB6821
:1095F00042F82030401C02910228F2D3059800F076
:109600000300022802D001284ED0A9E0059850227C
:10961000810D8946B2EB905F00D850210E4666F36B
:109620009F50059008315B4800F0EDF9070079D0B4
:1096300000F032FA4346082205A9384600F047FAFE
:10964000029908F1080A2940681A8000001D864224
:1096500023D94F4D0C3530B1C2B204EB8101301A21
:1096600090460C3104E02946F2B200259046284687
:10967000C6B25346384600F02AFA0AEB08032DB169
:10968000324629464FEA070000F021FA029909F113
:10969000030001EB900002903BE004EB8101534694
:1096A000324638460C31EFE70598C0F383100628A0
:1096B00000D30620059960F38911C1F38310801C43
:1096C00005918100334800F09EF9070048D000F072
:1096D000E3F94346082205A9384600F0F8F908F1F5
:1096E000080800260FE00298434600EA0501401CE6
:1096F00004EB81010290042238460C3100F0E7F9B6
:1097000008F10408761C0598C0F38310B042EAD82B
:1097100047B1D4F81054D4F8180468B1384600F0B2
:10972000C1F92FE01CE0687A012804D12A68284694
:109730003946126890476D68002DF4D1384600F024
:10974000B1F98DF800B06846FDF700FDD4F81804B3
:1097500008B9029860609DF80000FDF71BFD11E05C
:10976000D4F8104404E0216820468968884764687A
:10977000002CF8D108480221008801EB004007A125
:1097800000F016F8FEF75AFA80F0010007E7000033
:10979000305C0020C8C90200705000204261636B39
:1097A000656E647320666C75736865640000000004
:1097B00000231A4601F0E4BD08B5012300926A4671
:1097C00001F0DEFD08BD1CB5CDE9002302236A4689
:1097D00001F0D6FD1CBD70B586B00DF1280C9CE8DB
:1097E00070008DE87C0005236A4601F0C9FD06B0D3
:1097F00070BD00002DE9F0470E4680461C4692469B
:1098000008293ED894F80C90002020731946104681
:1098100001F04AFB0025B54206D218F805201AA12E
:109820002046FFF74BFB03E019A12046FFF746FB5C
:109830006D1C082DEFD317A12046FFF73FFB002535
:10984000B54210D218F80570FCF7EAFD0068C05D5B
:1098500010F03E0F01D03A4600E02E220EA1204625
:10986000FFF72CFB03E00DA12046FFF727FB6D1C43
:10987000082DE5D301222146504601F0F7FA84F87D
:109880000C90BDE8F0870000202530327800000001
:10989000202020007C000000256300002000000044
:1098A000104810B5FF218160002101604160C0F8BF
:1098B0001814C0F8141480F820140B4800F0F0F8C5
:1098C00000280DD109480A490A4B401AC108002056
:1098D00003E000BF23F82000401C8842FAD3002098
:1098E00010BD0000305C0020C8C90200C8C90200D9
:1098F00040C902003C50002002480349401AC008F9
:1099000070470000C8C9020040C9020013B568468C
:10991000FFF798F808B100201CBD0248009950F8E4
:1099200031001CBD40C9020070B508480125D0F8BF
:10993000104480F8205405E065722168204649688B
:1099400088476468002CF7D170BD0000305C0020AF
:109950002DE9FF4781460C9D00200C462F7B287384
:10996000984616462946184601F09EFA072E42D21E
:10997000DFE806F004090F161F2A3600494628467C
:10998000FFF79CFA37E0494628462268FFF796FA27
:1099900031E0D4E9002349462846FFF78FFA2AE050
:1099A000A0680090D4E9002349462846FFF786FACC
:1099B00021E0D4E90201CDE90001D4E900234946C0
:1099C0002846FFF77BFA16E004F1080007C88DE887
:1099D0000700D4E9002349462846FFF76FFA0AE05A
:1099E00004F108000FC88DE80F00D4E900234946B0
:1099F0002846FFF763FA00222946404601F036FA6E
:109A00002F73BDE8FF872DE9F041858A80462D1F21
:109A10004819C01CB0FBF5F0C6B24046FFF788F805
:109A2000041E19D00020207101206071E5800027FC
:109A30002546761EC4F800800BE04046FFF778F814
:109A400060B16179491C6171286005467F1CC0F8CE
:109A50000080B742F1D32046BDE8F081204600F0F7
:109A600002F80020F8E72DE9F041457901466B1E28
:109A7000002201E00968521C9A42FBD30F6801469C
:109A8000002605E038460C68FFF774F82146761C7E
:109A9000AE42F7D3BDE8F0810121001DFFF726B8E3
:109AA000FFF780B810B504460121001DFFF73AF812
:109AB00010F0FF0F04D12046BDE81040FFF7D3BFE0
:109AC00010BD38B501240094FEF780FF38BD38B5CD
:109AD00000240094FEF77AFF38BD0000064910B557
:109AE00000204870091D0860BFF35F8F03490448D8
:109AF00000F068FA002010BDB04F002000BF020047
:109B0000045B002008B500208DF800006846FDF7D2
:109B10001DFBF1EE100A20F09F00E1EE100ABFF3EA
:109B20005F8F08494020C1F880029DF80000FDF7D2
:109B300031FB00F0F3F908B141DF08BD20BF40BFA1
:109B400020BF08BD04E000E020B1034909680160BE
:109B5000002070470E20704700C10200FEB502468B
:109B60000E460846FFF7F0FF00286DD10024009450
:109B70008DF8002008208DF8020001940620ADF831
:109B80000400029469462020326869DF2F4F0125C6
:109B900040B100F05BFA024638882D4905EB0040E1
:109BA000FFF70AFE00948DF8014004208DF80200B2
:109BB000019402948DF8035069464020326869DFB1
:109BC00040B100F043FA02463888224905EB0040D4
:109BD000FFF7F2FD0094019402948DF8005069465D
:109BE0000120326869DF40B100F030FA024638885F
:109BF000194905EB0040FFF7DFFD4FF4B06000901E
:109C0000019402946946A120326869DF40B100F0F6
:109C10001DFA02463888114905EB0040FFF7CCFDDC
:109C20000094019402948DF800406946A0203268A7
:109C300069DF40B100F00AFA02463888084905EBAE
:109C40000040FFF7B9FD0020FEBD00007850002065
:109C5000D4C702001CC8020034C7020080C702003B
:109C6000E0C602002DE9F0410446D0F8008060DF34
:109C70002168194D074641451CD92888022606EB64
:109C8000004016A1FFF794FD2888424606EB0040ED
:109C90001EA12368FFF797FDF006D0F80C0121689C
:109CA000800200F10050421A288825A106EB0040EE
:109CB000FFF782FD012467B1384600F0C7F902467C
:109CC00028882AA104EB0040FFF776FD3846BDE85E
:109CD000F0812E480470F9E778500020496E7375C2
:109CE0006666696369656E742052414D20616C6CD3
:109CF0006F636174656420666F72207468652053B9
:109D00006F66744465766963652E00004368616E12
:109D10006765207468652052414D207374617274C8
:109D2000206C6F636174696F6E2066726F6D203096
:109D300078257820746F20307825782E0000000078
:109D40004D6178696D756D2052414D2073697A655A
:109D500020666F72206170706C69636174696F6EE8
:109D600020697320307825782E00000073645F62CC
:109D70006C655F656E61626C65282920726574751B
:109D8000726E65642025732E00000000375000209D
:109D900030B5154891B00078002822D05FF0340427
:109DA000ADF8404010A903A861DF48B1052818D0DC
:109DB00011B00EA2BDE8304040F23911FCF72ABACA
:109DC00003AD1A49684600F0FDF806E0D0E900212D
:109DD00028469047684600F00CF902980028DFD02A
:109DE000F4E711B030BD0000375000202E2E5C2E5D
:109DF0002E5C2E2E5C2E2E5C2E2E5C2E2E5C636F27
:109E00006D706F6E656E74735C736F667464657687
:109E10006963655C636F6D6D6F6E5C6E72665F73B8
:109E200064685F626C652E630000000004C102007C
:109E3000F8B5134C2078C0B10120A07001F0B6F93C
:109E4000112814D0022001F0C9F900258DF8005026
:109E50006846FDF77BF911DF064625709DF8000086
:109E6000FDF798F92EB13046F8BD0820F8BD002066
:109E7000F8BDA57001F0FCF9032001F0AFF9F6E799
:109E8000345000207CB5194C207808B108207CBDE6
:109E90000120A070002001F089F9112819D00020BC
:109EA00001F09CF912480026006801908DF80060CE
:109EB0006846FDF74BF90F4901A810DF05000AD0ED
:109EC000002020709DF80000FDF764F92DB12846B0
:109ED0007CBD00207CBD0120F3E7A670667001F018
:109EE00003FA012001F07AF9F3E700003450002072
:109EF00098C00200996C02000EB50749684600F050
:109F000061F805E0D0E900108847684600F071F874
:109F100002980028F6D10EBDB4C0020001480078B6
:109F200070470000345000200548817819B100784E
:109F300018B1FFF77DBF08207047FFF7A3BF0000EF
:109F4000345000201FB568464BDF40B1052816D0BD
:109F500004B00BA2BDE810406B21FCF75BB91849B7
:109F600001A800F02FF806E0D0E900210098904702
:109F700001A800F03EF803980028E4D0F4E71FBDE4
:109F80002E2E5C2E2E5C2E2E5C2E2E5C2E2E5C2E0B
:109F90002E5C636F6D706F6E656E74735C736F664D
:109FA000746465766963655C636F6D6D6F6E5C6E1E
:109FB00072665F7364685F736F632E6300000000F6
:109FC00020C10200016009684160AFF3008010B554
:109FD000D0E900215368994201D1002104E0D1E980
:109FE0000034A34202D01946816010BD083141609F
:109FF000F0E7816800290BD0026892680A44826009
:10A0000041684B689A4203D108314160FFF7DFBFD6
:10A01000704700000C4A10B502F594730EE0991ACF
:10A02000C91001EBD171491002EBC1010C688442E7
:10A0300001D90B4602E005D201F108029A42EED3A3
:10A04000002010BD486810BD20BF020000B5FFF71A
:10A05000E1FF002800D1014800BD00000CBF020054
:10A060004058002800D00120704708B50022425017
:10A070004058009008BDD0F80403084000D00120EB
:10A0800070474058002800D00120704708B50022D2
:10A0900042504058009008BD08480068012110F067
:10A0A000010F08D14FF0E020E02280F80024C0F832
:10A0B0008012C0F8001102480160704700E100E022
:10A0C000180500400649024600200B790BB1852097
:10A0D00070470A6001220A7100224A71704700002D
:10A0E000504F002004490120086004480168C1F372
:10A0F00000410029FAD170470C00004018040040CC
:10A10000002802D00149800108477047C1BE020003
:10A1100010B5044600F092FE28B12046BDE810407C
:10A120000021FFF7C9B8204600F094FE00280FD0A8
:10A130002046FDF705FE074A02EB8001D1F81035F5
:10A1400023F00103C1F8103501218140C2F8081342
:10A1500010BD0000006000402DE9F0410E46804631
:10A1600000F06CFE204D0028404616D0FDF7E8FDBB
:10A17000284490F858008009032802D001280AD00A
:10A1800003E04046FFF7E8F828B103214046BDE868
:10A19000F041FFF791B80221F8E700F05BFE0028DC
:10A1A00020D04046FDF7CCFD0446104F4FF48070A0
:10A1B00007EB840100EB8400D1F8102580B242F057
:10A1C0000102C1F81025FFF70FF9002E0AD0404612
:10A1D000FDF7B6FD55F82000002803D00120A0406F
:10A1E000C7F80403BDE8F08150580020006000402B
:10A1F0002DE9FC41DFF8C080044608EB040000278D
:10A2000090F930001346C0170E46401C01D00827B5
:10A210004FE0B0781946C0F340022046FDF76CFDD0
:10A220000546401C44D0B07841071CD4C0070DD06F
:10A2300068460094FFF766F8009900EB8100D0F8BB
:10A24000001721F00201C0F8001707E00021737821
:10A25000204600910A460191FEF7BDFF16492046AF
:10A260006431FEF7BFFCB078800718D51348317809
:10A2700000EB8500D0F81025114B1A40C0F81025CE
:10A280004FF47C524FF4403302EA042203EA0141C6
:10A290000A43D0F810150A43C0F8102509E008EB6E
:10A2A0000500327810F8581F41EA8211017000E071
:10A2B00004273846BDE8FC8150580020006000406B
:10A2C000FFC0FCFF10B5FFF747F8002800D00120C1
:10A2D00010BD000070B5194D95F86A0008B108204E
:10A2E00070BD0020411E2A18401CC0B282F83010F8
:10A2F0003028F8D300242046FDF7F0FC641CE4B2BB
:10A300000C2CF8D30D490024E0204C66A1F86840DD
:10A310000B4981F8000401264020891FC1F8800202
:10A32000C1F800014FF4BE70FFF75EF80549F00771
:10A33000C1F8040385F86A60204670BD50580020BB
:10A3400006E000E000600040034890F86A00002842
:10A3500000D0012070470000505800200121B1EBCF
:10A36000507F01D1012070470020704738B50D465D
:10A3700000F0E6FD040014D000208DF800006846CF
:10A38000FCF7E4FE207928B19DF80000FCF702FFFD
:10A39000112038BD0120256020719DF80000FCF7D8
:10A3A000F9FE002038BD00000149024801F06ABBF7
:10A3B000BC580020002000402DE9F04105460079FE
:10A3C00016460F4600EB40012D4A01EBC00102EB9F
:10A3D000810494F82A1011B10820BDE8F0812949C0
:10A3E00051F820102868FFF7C1FF08B11120F4E7E9
:10A3F00039462846FCF7E8FE666038692060300080
:10A400004FF001062FD03F7F4FF48E712868FFF781
:10A410002CFE4FF4A2712868FFF727FE28681A491E
:10A42000C0F8041328684FEA4711000B40B2002817
:10A4300006DA00F00F0000F1E02080F8141D03E0C0
:10A4400000F1E02080F800142868000B40B200F012
:10A450001F0206FA02F14009800000F1E020C0F876
:10A460008012C0F8001128680421C0F800150020EF
:10A47000A061E06184F8290044F8140FA675ACE7E8
:10A48000BC580020A4BE0200800002002DE9F05F4D
:10A49000054600794FF4017600EB400303EBC00062
:10A4A000344B03EB80040020636813B12B68C3F8BE
:10A4B0000863A3694FF000096BB1E06938B16068C7
:10A4C00010B12868C0F804631120BDE8F09FE26174
:10A4D0000120216105E0C4F82490A261E160C4F884
:10A4E0001C9094F82910014302D1284600F0F8FD91
:10A4F00060680028286803D0C0F804630020E4E7FF
:10A500004FF4A2763146FFF7B0FDB2464FF4927B8E
:10A5100059462868FFF7A4FD06464FF48471286861
:10A52000FFF79EFD804651462868FFF799FD0746D4
:10A5300048EA07003043EBD056EA070007D121462E
:10A54000286800F09DFDA169606A8142E0D8C4F8E6
:10A5500018900EB10320B8E70FB10F20B5E794F8BB
:10A56000291001200029296801D00860C6E7486049
:10A57000C4E70000BC5800202DE9F04705460079EB
:10A580000B4600EB400101EBC000234901EB8004C6
:10A59000284600F043F810B11120BDE8F0874FF0D5
:10A5A0000008C4F82080A360626184F828804FF41A
:10A5B0008E76474631462868FFF757FD28684FF0EA
:10A5C0000109C0F808902146286801F02FF860685A
:10A5D00000BBD5F800A00EE094F8280008B10F27C2
:10A5E00016E031465046FFF73BFD0028F4D02146E7
:10A5F000504601F01BF8216A60698142F1D331466F
:10A600002868FFF72DFD0028F9D02868C0F80C90C5
:10A61000C4F814803846C0E7BC580020007900EB2D
:10A62000400101EBC000044901EB800040690028B3
:10A6300000D0012070470000BC58002001490248AA
:10A6400001F0CCBAE8580020002000402DE9F0418C
:10A650000546164600790F46154A00EBC00102EB8D
:10A66000810494F8201011B10820BDE8F08111494F
:10A6700051F820102868FFF779FE08B11120F4E79F
:10A6800039462846FCF7DBFD6660386920601EB15C
:10A69000397F2846FDF794FF28680821C0F8001587
:10A6A0000020A061E0610121606184F82010DCE7F6
:10A6B000E8580020A8BE02002DE9F05F04460079AA
:10A6C0000E4600EBC001DFF8F0A017460AEB81054B
:10A6D0003046FFF743FEB0B168684FF000084FF412
:10A6E000047910B12168C1F80893A8694FF0000BF4
:10A6F00080B1E86948B1686810B12068C0F8049377
:10A700001120BDE8F09F1020FBE7EF614FF001083A
:10A710002E6102E0EE60C5E9067B00254FF48871EA
:10A720002068FFF7B3FC4FF4A2712068FFF7AEFC7E
:10A730002068C0F83465C0F838752068B8F1000F9B
:10A7400012D0D0F8001241F02001C0F80012207998
:10A75000D04600EBC0010AEB8100406838B12068A8
:10A76000C0F804932846CCE701210160EFE74FF4DD
:10A77000887A4FF4A27951462068FFF782FC074699
:10A7800049462068FFF77DFC06464FF49271206829
:10A79000FFF777FC014647EA06000843EBD0227931
:10A7A00002EBC20308EB8302C2F818B001B1032523
:10A7B000002ED7D00F25D5E7E85800202DE9F04727
:10A7C00004460E460079204900EBC00001EB8005ED
:10A7D00017463046FFF7C2FD30B1204600F036F88C
:10A7E00020B11120BDE8F0871020FBE76F61AE605B
:10A7F0004FF49076002731462068FFF747FC4FF46E
:10A80000AC7841462068FFF741FC2068AA68696976
:10A81000C0F84425C0F848152068012181606868A7
:10A8200078B9B14649462068FFF72BFC06464146F9
:10A830002068FFF726FC0643F4D000B10F27002064
:10A8400068613846CEE70000E858002000790549E5
:10A8500000EBC00001EB80004069002800D001201F
:10A8600070470000E85800202DE9F047DFF84C81E0
:10A870000446818B8069D8F80420FCF721FD03266B
:10A880004F4D012730B10022042108F11800FDF7D7
:10A89000F2FDC0B3A18BA069D8F80820FCF710FD29
:10A8A00030B14648012204211830FDF7E4FDE8B339
:10A8B000A18BA069D8F80C20FCF702FD38B13F4805
:10A8C000022204211830FDF7D6FD002846D0A18BC6
:10A8D000A069D8F81020FCF7F3FC38B13748032200
:10A8E00004211830FDF7C7FD00284AD033491C3138
:10A8F00000208ADF00282FD0BDE8F04731A240F2C7
:10A900009711FBF787BC2888A26906EB00404646F2
:10A9100030A1D8F80430FEF756FF0020304A01235A
:10A92000706102F10801A01C8CDF13E001E02888AF
:10A930003DE02888A26906EB0040464625A1D8F8EC
:10A940000830FEF740FF264A012302F10801A01C4F
:10A9500077618CDF0200EAD1BDE8F0872888A26920
:10A9600006EB004046461BA1D8F80C30FEF72BFF43
:10A9700002201B4A0123706102F10801A01C8CDF38
:10A98000E8E72888A94606EB00404546A26911A1E0
:10A99000D8F81030FEF717FF114A012302F1080121
:10A9A000A01C6E618CDF0200D6D0B9F800000DA1AA
:10A9B00007EB0040BDE8F047FEF7FEBE684300200D
:10A9C000705000202E2E5C2E2E5C2E2E5C6D616948
:10A9D0006E2E63002578204164763A2025730000AE
:10A9E000B4BD0200436F6E6E656374696F6E205272
:10A9F000657175657374204661696C65642C20729D
:10AA00006561736F6E202564000000002DE9F84F2A
:10AA100005460C460888B5F8CA12884259D195F8FF
:10AA2000C602DFF8F8A000EB8001C1EB801005EB57
:10AA3000400160884FF003094FF00008F0BBE68842
:10AA40000879A21DF3B250FA86F6062E01D8034407
:10AA500000E006230B7100261CE000BF00EBC003E2
:10AA600006EB860702EB470701EB4303D7F802C06A
:10AA7000C3F80AC0D7F806C0C3F80EC07F895F824A
:10AA8000A3F81480A3F81680A3F81880401CA3F83C
:10AA90001A80761C0B798342E0D895F8C62200EB29
:10AAA000C00002EB8203C3EB821205EB420231F8D5
:10AAB0001000128990420ED2087900E00BE00628BF
:10AAC00009D085F8C50221882846FDF741F9010023
:10AAD0000AD1BDE8F88F85F8C582228869462846E4
:10AAE000FDF758FA01000BD085F8C7822288284666
:10AAF000FDF72AFB8AF800902188AAF80210E8E7FF
:10AB00009DF800000028E4D0228801212846FDF7A6
:10AB1000D3FA2188284600F053F9DAE79C54002044
:10AB200070B58D88027900EBC5042273C97BA41D22
:10AB3000012902D0022904D101E0008800E0408808
:10AB400020802188608881420FD92846A5DF012610
:10AB5000A0B1112814D0FFF779FA02460A480BA1D8
:10AB6000008806EB0040FEF727FEA179E0798142DC
:10AB700008D92846BDE87040FDF7A4B96671F4E72E
:10AB80002671F2E770BD00004050002073645F62E0
:10AB90006C655F67617474635F65786368616E6735
:10ABA000655F6D74755F72657175657374282920B2
:10ABB00072657475726E65642025732E0000000046
:10ABC000F8B505460C460888B5F8CA1288425DD12A
:10ABD00095F8C602A61D00EB8001C1EB801005EBC5
:10ABE000400395F8C502618800EBC00003EB40000C
:10ABF0000A3039B329E000BF01EB410206EB420203
:10AC00009788B7F5245F0CD06FF4245C17EB0C0722
:10AC10000AD0012F02D0072F0BD108E052884281C1
:10AC200007E05288828104E05288C28101E05288A4
:10AC3000028242892AB182891AB1C2890AB1028A82
:10AC40001AB9491C32888A42D6D800268DF800608D
:10AC500095F8C5021979401C884203D101208DF86E
:10AC6000000018E085F8C502228869462846FDF7ED
:10AC700091F901000BD085F8C76222882846FDF7BC
:10AC800063FA0A480321017021884180F8BD9DF8CC
:10AC900000000028FAD0228801212846FDF70CFA8E
:10ACA0002188284600F08CF8F8BD00009C54002054
:10ACB0007CB506468D88C88806EBC504A41D1728F8
:10ACC00000D217202188814200D8084660800020E9
:10ACD000207121882846B5DF50B1FFF7B7F9024649
:10ACE0000E480121008801EB00400DA1FEF764FD34
:10ACF0006079002810D1B06A00280DD01449D1E93C
:10AD00000201CDE90001ADF802506088ADF8040001
:10AD1000B26A6946304690477CBD00004050002032
:10AD200073645F626C655F67617474735F65786399
:10AD300068616E67655F6D74755F7265706C7928A8
:10AD4000292072657475726E65642025732E00006B
:10AD500068BE020070B505460C4690F8C60222880F
:10AD600000EB8001C1EB801005EB4001B5F8CA0291
:10AD7000824222D1608848B100212846FDF79CF923
:10AD800021882846BDE8704000F01AB8A2680A6021
:10AD9000E068C1F8060021882846FCF7D9FF0100C9
:10ADA0000BD0002085F8C70222882846FDF7CCF991
:10ADB0000248032101702188418070BD9C5400200D
:10ADC0002DE9F041044690F8C9020E46401C19498D
:10ADD000C0B284F8C902C9680327174D4FF0000EAE
:10ADE000884224D284F8C5E294F8C602401CC0B25E
:10ADF00000EB8001C1EB801104EB410284F8C60234
:10AE0000A5F1180101EB800001210068106082F8B3
:10AE100004E030469BDF010007D084F8C7E23246E9
:10AE20002046FDF791F92F706E80BDE8F08184F81F
:10AE3000C7E2F8E7244F00209C540020044908444E
:10AE400090F93000082801DB01207047002070478E
:10AE5000505800200449084490F93000082801D2D5
:10AE600001207047002070475058002010B50C4654
:10AE7000017A052908D0407A38B1084808A102684B
:10AE80002046FEF71BF800E01AB106A12046FEF7A7
:10AE900015F82046BDE81040FEF71DB81050002000
:10AEA000257300000D0A000038B5C3880D4604461E
:10AEB00033B114A0009015A216A12846FDF7FEFF9D
:10AEC000217A05291CD0607A48B1A088FEF73AFBA8
:10AED000164951F8202016A12846FDF7EFFFA0885B
:10AEE0000021FEF713FD03461049207A143951F86A
:10AEF000202001B02846BDE830400EA1FDF7DEBF9E
:10AF000038BD00001B5B306D000000001B5B313B57
:10AF100033316D0025734C6F67732064726F7070EE
:10AF20006564202825642925730D0A00105000202F
:10AF3000257300003C25733E2025733A2000000055
:10AF40000349884201D10348704700207047000040
:10AF500000200040584F0020034802490068FDF7D8
:10AF600089BD0000AC4F0020D8BE02002DE9F041A1
:10AF7000234C0025234E207A012730B92248311D69
:10AF80000068FDF782FD306038B102202072316820
:10AF9000087928B101281ED116E06560BDE8F0816E
:10AFA000D1E90503C01A4FF48052904200D31046F5
:10AFB000B7EB900F01D2820800E001220869C9684E
:10AFC0001844194429DF03E0D1E90301084428DFCC
:10AFD00058B1112812D003213068FDF70FFA2572FD
:10AFE0006560BDE8F041FFF7B7BF207C0028D5D1F0
:10AFF000BDE8F04100210220FEF782B82772CDE7BC
:10B00000F05A0020A84F0020D8BE020070B50C4BAB
:10B0100000210A4ADC680DE002EB81058678AD78F4
:10B02000B54206D132F821500688B54201D15868A0
:10B0300070BD491CA142EFD3002070BD8454002094
:10B04000244F002070B5012670044FF0E021002548
:10B05000C1F88001084C4010C4F84803C4F8080344
:10B0600066602F20FFF74CF8A660044C2F20A560E7
:10B07000FFF746F8A57070BD00100140804F00201A
:10B0800070B5054688690C4600284FF4847128463F
:10B090000AD0FEF7EAFFD5F81805626AE16888541D
:10B0A000606A401C606270BDFEF7DFFFD5F81805CE
:10B0B00070BD1FB501238DF80030CDE90121D0E925
:10B0C0000012684690471FBD1FB501238DF8003060
:10B0D0008DF808100192D0E90012684690471FBD14
:10B0E00010B5044600684FF49271FEF7BEFF4FF4AE
:10B0F00084712068FEF7B9FF20680121016010BD4E
:10B1000010B58BDF09480321008801EB0040084996
:10B110004A6808A1FEF750FB05490F481C318ADF39
:10B12000BDE810400020FCF7FDBC0000705000207E
:10B13000684300205374617274207363616E6E699A
:10B140006E6720666F7220646576696365206E6144
:10B150006D652025732E0000BCBD020038B50021AE
:10B16000012548B101280CD0032809D1FEF794FF2E
:10B17000BDE83840FDF736BE4FF0E020C0F8805102
:10B1800038BD8DF800106846FBF7E0FF064C2078CC
:10B1900008B9FDF70BFEE068401CE060A5709DF863
:10B1A0000000FBF7F7FF38BD3C5800203EB50446D1
:10B1B00009496846FEF706FF08E000BFD0E9002114
:10B1C0002046904730B16846FEF713FF02980028EA
:10B1D000F4D13EBD11203EBD9CC002003EB50446E8
:10B1E00008496846FEF7EEFE07E000BFD0E90021FF
:10B1F000204690476846FEF7FCFE02980028F5D1ED
:10B200003EBD0000A8C002002DE9F04114008846B0
:10B2100018D000250E4F032608EB0501224600201A
:10B22000FBF7CEFA0544241A40B93878002809D033
:10B2300008494FF47A408847761E05D001203870BF
:10B24000002CE9D1BDE8F08100203870FAE7000059
:10B25000D44F002081C00200002805D103490120FD
:10B2600048700020FCF796BD704700003C58002055
:10B2700010B51620FBF766FC48B10B4882684FF406
:10B28000800162B1016821F48001016010BDBDE858
:10B29000104042F2010005A2AD21FAF7BBBF4FF00A
:10B2A000E020C0F8801110BD585A00202E2E5C2ED0
:10B2B0002E5C2E2E5C2E2E5C2E2E5C2E2E5C636F52
:10B2C0006D706F6E656E74735C736F6674646576B3
:10B2D0006963655C636F6D6D6F6E5C6E72665F73E4
:10B2E00064682E630000000010B51620FBF72AFCEE
:10B2F000A0B1124890F800044009082811D280B18A
:10B3000001280ED004280CD00D4882684FF480012B
:10B310007AB1016841F48001016010BD42F2010080
:10B3200001E042F20200BDE8104006A2A121FAF7B6
:10B3300071BF4FF0E020C0F8001110BD16E000E032
:10B34000585A00202E2E5C2E2E5C2E2E5C2E2E5C4B
:10B350002E2E5C2E2E5C636F6D706F6E656E747337
:10B360005C736F66746465766963655C636F6D6D4D
:10B370006F6E5C6E72665F7364682E63000000001F
:10B380002DE9F84F204D92468946064698460122FF
:10B3900069461846AF68FCF7F9FB58B300980021DE
:10B3A0000446801C09E000BF00EA07035AF8212088
:10B3B00005EB8303401C491CDA604145F4D34FEA96
:10B3C000164AFCF70DFF4AEA0041601C384005EBC5
:10B3D00080003C4005EB8402C160D06866F3C50084
:10B3E00068F3891069F39F2020F00300401C20F0CF
:10B3F0000400D06095F8200402E000BFFEF7C8F812
:10B400000028FBD1BDE8F88F305C00202DE9F84F13
:10B410001D4C00256846D4E901A6FCF7EBFE002789
:10B4200038B30023009A61681CE0D1F800C00846D8
:10B43000944503D9ACEB02020A6015E0A2EB0C02C2
:10B4400063440760D0F80CC0C1698146BCF1000FAD
:10B4500008D006EB030828F07F48C0E9018CC9F842
:10B460001C5005460029E0D128466160FDF750F9DF
:10B4700003E02846FDF74CF910B15046FCF7ACFC50
:10B48000E770BDE8F88F0000804F00200D4B10B52D
:10B49000596831B102680C68A24204D8A21A0A6045
:10B4A000C161586010BD0B4603E00B46C969121B11
:10B4B00021B10C689442F8D3A41A0C600260C161F7
:10B4C000D86110BD804F00202DE9F041144E7768FF
:10B4D0003D462C4603E0844204D02546E469002C16
:10B4E000F9D11BE0D4B1A5420BD1F869706040B925
:10B4F0000C49012088600021B160F0702F20FEF718
:10B50000FFFD2168E069E86110B102681144016043
:10B510007068874202D00120BDE8F0810020FBE77F
:10B52000804F0020001001407CB5064600240D46E7
:10B530008DF800406846FBF709FE01A800F022FCE8
:10B5400070B10570094946609DF8040048709DF887
:10B550000000FBF71FFE1420FBF7D6F820467CBD49
:10B5600004249DF80000FBF715FEF7E74C59002076
:10B570002DE9F041194D6C68002C2CD0184800279B
:10B580000068A968B846401A20F07F462068B0429B
:10B590000CD82146361A0744E469087C20B181F8AA
:10B5A0001080886949698847002CEFD1297868782C
:10B5B000814206D1401CC0B26870022801D185F8D2
:10B5C0000180064869780C3040F82170BDE8F041F0
:10B5D0001420FBF799B8BDE8F0810000804F0020EF
:10B5E0000415014010B50F4CD4E90010884211D069
:10B5F00000EB80020C4800EB82018B785BB130F8E5
:10B6000022000831A3DF002804D12079401C00F07B
:10B610000700606010BD30F8220089880022A1DF99
:10B62000F1E70000344F00209C57002070B50C4615
:10B6300005464FF48E71FEF718FD216AA068415C43
:10B64000206A401C2062C5F81C1570BD1FB5002281
:10B650008DF800200291816801914261D0E90012C9
:10B66000684690471FBD00002DE9FF5F0178DFF8B5
:10B67000A8A204464FF0030B71B150460322008884
:10B68000012902EB00407DD002297CD104B0A3A1A6
:10B69000BDE8F05FFEF78CB8AE4CAD4F2088384463
:10B6A000FBF79EFC20880026401C80B239182080C1
:10B6B00011F8011C0A2901D014284ED3CC20FBF725
:10B6C0001BFD7720FBF718FD7720FBF715FDCC203D
:10B6D000FBF712FD002504E06068405DFBF70CFD00
:10B6E0006D1C6068FAF7C4FEA842F5D8002504E096
:10B6F000A068405DFBF700FD6D1CA068FAF7B8FE7E
:10B70000A842F5D8002504E0E068405DFBF7F4FCB2
:10B710006D1CE068FAF7ACFEA842F5D8002504E0FD
:10B720002069405DFBF7E8FC6D1C2069FAF7A0FE7C
:10B73000A842F5D84520FBF7DFFC4320FBF7DCFCF3
:10B740004720FBF7D9FCCC20FBF7D6FCCC20FBF73D
:10B75000D3FCCC20FBF7D0FC26802088384410F89E
:10B76000010C58280FD1DFF8EC91002509F11809D8
:10B77000B04619F805004E46A8B1BAF800100BEB18
:10B78000014001E0BBE0B2E02A4673A1FEF714F8E5
:10B79000A8B2132176DF20B176A240F2F521FAF7A4
:10B7A00039FD06F805806D1C042DE2DB0025CDF87F
:10B7B0000080CDF80480CDF808802E466FF02F0A67
:10B7C000E946CDF80C8010E0B85D2C2843D0042D5C
:10B7D00008DA59F8252002EB82030AEB43020244FF
:10B7E00049F82520FBF788FC761C2088401E8642FD
:10B7F000EADB0098C0B2FBF77FFC0198C0B2FBF710
:10B800007BFC0298C0B2FBF777FC0398C0B2FBF751
:10B8100073FC5820FBF770FC5820FBF76DFCA4F874
:10B82000008004F10803DFF85CB168CBD4F8047041
:10B83000C2460020ABF13C0E59F82010092926D849
:10B8400001F13002D2B250B101280FD0022813D03A
:10B85000032817D01BE0042DC4DA6D1CC2E7494F42
:10B860008EF803208EF804A03C3F10E0454B283BA7
:10B87000DA7083F804A00AE0424D143DEA7085F8BE
:10B8800004A004E08BF803203E4E8BF804A0A1F145
:10B890000A02592A24D84FF00A0C91FBFCF291FBC2
:10B8A000FCF830320CFB18113031D2B2C9B230B1D1
:10B8B00001280CD002280FD003281AD010E0314FF5
:10B8C0008EF803203C3F8EF804100120B4E72D4B86
:10B8D000283BDA70197103E02A4D143DEA70297192
:10B8E000401C0428A8DB6760083484E86800BDE8D1
:10B8F000FF9F8BF803208BF80410224EF3E722A160
:10B90000FDF756FF606804B01AA2BDE8F05F40F290
:10B910006F31FAF77FBC000070500020436F6D6DEF
:10B92000756E69636174696F6E206572726F7220E3
:10B930006F63637572726564207768696C652068EF
:10B94000616E646C696E6720554152542E00000090
:10B95000805000206843002074727920746F206446
:10B960006973636F6E6E65637420776974682025F0
:10B97000642E00002E2E5C2E2E5C2E2E5C6D6169D6
:10B980006E2E6300F84E00204572726F72206F6356
:10B9900063757272656420696E204649464F206D5A
:10B9A0006F64756C652075736564206279205541FC
:10B9B00052542E007CB50178244D81B301290BD05F
:10B9C00002292BD18DF80010C068691C019001225A
:10B9D000C81DFDF753FA2EE0406801781C48FBF7BC
:10B9E00062FA1B4C012618B18DF80060019006E048
:10B9F000A068E168814205D000208DF800006968E8
:10BA000068468847A068E168081AA188884207D874
:10BA10000E490122491CC81DFDF730FA7CBD01E02A
:10BA2000AE70FBE70A4809491030FBF721FA30B144
:10BA300003208DF80000696868468847EEE70349EF
:10BA4000012201F10800FDF729FAE7E7B84F0020CD
:10BA5000105B00201FB50A4601788DF80010416880
:10BA60000191017A8DF80810C0680390044850F8DD
:10BA70002210083850F82220684690471FBD000069
:10BA8000484F00202DE9FF470C4605464FF4007152
:10BA9000FEF7F1FA01274FF40178002618B34FF4AE
:10BAA000927949462846FEF7DBFAE0B14946284636
:10BAB000FEF7DBFAC5F8088394F8290000B96F6037
:10BAC00002208DF80000D5F88004C5F880040390AA
:10BAD000A0690290E0680190A661E661D4E90012D5
